{
  "_format": "hh-sol-artifact-1",
  "contractName": "ToDoList",
  "sourceName": "contracts/Todolist.sol",
  "abi": [
    {
      "inputs": [],
      "stateMutability": "nonpayable",
      "type": "constructor"
    },
    {
      "anonymous": false,
      "inputs": [
        {
          "indexed": true,
          "internalType": "address",
          "name": "account",
          "type": "address"
        },
        {
          "indexed": true,
          "internalType": "uint256",
          "name": "userId",
          "type": "uint256"
        },
        {
          "indexed": false,
          "internalType": "string",
          "name": "message",
          "type": "string"
        },
        {
          "indexed": false,
          "internalType": "bool",
          "name": "completed",
          "type": "bool"
        }
      ],
      "name": "ToDoEvent",
      "type": "event"
    },
    {
      "inputs": [
        {
          "internalType": "address",
          "name": "",
          "type": "address"
        }
      ],
      "name": "ToDoListApps",
      "outputs": [
        {
          "internalType": "address",
          "name": "account",
          "type": "address"
        },
        {
          "internalType": "uint256",
          "name": "userId",
          "type": "uint256"
        },
        {
          "internalType": "string",
          "name": "message",
          "type": "string"
        },
        {
          "internalType": "bool",
          "name": "completed",
          "type": "bool"
        }
      ],
      "stateMutability": "view",
      "type": "function"
    },
    {
      "inputs": [],
      "name": "_idUser",
      "outputs": [
        {
          "internalType": "uint256",
          "name": "",
          "type": "uint256"
        }
      ],
      "stateMutability": "view",
      "type": "function"
    },
    {
      "inputs": [
        {
          "internalType": "string",
          "name": "_message",
          "type": "string"
        }
      ],
      "name": "createList",
      "outputs": [],
      "stateMutability": "nonpayable",
      "type": "function"
    },
    {
      "inputs": [
        {
          "internalType": "uint256",
          "name": "",
          "type": "uint256"
        }
      ],
      "name": "creators",
      "outputs": [
        {
          "internalType": "address",
          "name": "",
          "type": "address"
        }
      ],
      "stateMutability": "view",
      "type": "function"
    },
    {
      "inputs": [],
      "name": "getAddress",
      "outputs": [
        {
          "internalType": "address[]",
          "name": "",
          "type": "address[]"
        }
      ],
      "stateMutability": "view",
      "type": "function"
    },
    {
      "inputs": [
        {
          "internalType": "address",
          "name": "_address",
          "type": "address"
        }
      ],
      "name": "getCreatorData",
      "outputs": [
        {
          "internalType": "address",
          "name": "",
          "type": "address"
        },
        {
          "internalType": "uint256",
          "name": "",
          "type": "uint256"
        },
        {
          "internalType": "string",
          "name": "",
          "type": "string"
        },
        {
          "internalType": "bool",
          "name": "",
          "type": "bool"
        }
      ],
      "stateMutability": "view",
      "type": "function"
    },
    {
      "inputs": [],
      "name": "getMessage",
      "outputs": [
        {
          "internalType": "string[]",
          "name": "",
          "type": "string[]"
        }
      ],
      "stateMutability": "view",
      "type": "function"
    },
    {
      "inputs": [
        {
          "internalType": "uint256",
          "name": "",
          "type": "uint256"
        }
      ],
      "name": "message",
      "outputs": [
        {
          "internalType": "string",
          "name": "",
          "type": "string"
        }
      ],
      "stateMutability": "view",
      "type": "function"
    },
    {
      "inputs": [
        {
          "internalType": "uint256",
          "name": "",
          "type": "uint256"
        }
      ],
      "name": "messageId",
      "outputs": [
        {
          "internalType": "uint256",
          "name": "",
          "type": "uint256"
        }
      ],
      "stateMutability": "view",
      "type": "function"
    },
    {
      "inputs": [],
      "name": "ownerOfContract",
      "outputs": [
        {
          "internalType": "address",
          "name": "",
          "type": "address"
        }
      ],
      "stateMutability": "view",
      "type": "function"
    },
    {
      "inputs": [
        {
          "internalType": "address",
          "name": "_creator",
          "type": "address"
        }
      ],
      "name": "toggle",
      "outputs": [],
      "stateMutability": "nonpayable",
      "type": "function"
    }
  ],
  "bytecode": "0x608060405234801561001057600080fd5b5033600160006101000a81548173ffffffffffffffffffffffffffffffffffffffff021916908373ffffffffffffffffffffffffffffffffffffffff160217905550611346806100616000396000f3fe608060405234801561001057600080fd5b50600436106100a95760003560e01c806394432cc51161007157806394432cc514610169578063974dd17b14610187578063b8dcc68f146101ba578063cd53d08e146101d6578063ce6d41de14610206578063d1e8507b14610224576100a9565b80630d64e697146100ae57806321e47d46146100e157806338cc483114610111578063468229ae1461012f578063588f9acc1461014d575b600080fd5b6100c860048036038101906100c39190610a58565b610254565b6040516100d89493929190610b58565b60405180910390f35b6100fb60048036038101906100f69190610bd0565b6103d9565b6040516101089190610bfd565b60405180910390f35b6101196103fd565b6040516101269190610cd6565b60405180910390f35b61013761048b565b6040516101449190610cf8565b60405180910390f35b61016760048036038101906101629190610a58565b6104b1565b005b610171610526565b60405161017e9190610bfd565b60405180910390f35b6101a1600480360381019061019c9190610a58565b61052c565b6040516101b19493929190610b58565b60405180910390f35b6101d460048036038101906101cf9190610d78565b610611565b005b6101f060048036038101906101eb9190610bd0565b610813565b6040516101fd9190610cf8565b60405180910390f35b61020e610852565b60405161021b9190610ed1565b60405180910390f35b61023e60048036038101906102399190610bd0565b61092b565b60405161024b9190610ef3565b60405180910390f35b6000806060600080600560008773ffffffffffffffffffffffffffffffffffffffff1673ffffffffffffffffffffffffffffffffffffffff1681526020019081526020016000206040518060800160405290816000820160009054906101000a900473ffffffffffffffffffffffffffffffffffffffff1673ffffffffffffffffffffffffffffffffffffffff1673ffffffffffffffffffffffffffffffffffffffff1681526020016001820154815260200160028201805461031690610f44565b80601f016020809104026020016040519081016040528092919081815260200182805461034290610f44565b801561038f5780601f106103645761010080835404028352916020019161038f565b820191906000526020600020905b81548152906001019060200180831161037257829003601f168201915b505050505081526020016003820160009054906101000a900460ff161515151581525050905080600001518160200151826040015183606001519450945094509450509193509193565b600481815481106103e957600080fd5b906000526020600020016000915090505481565b6060600280548060200260200160405190810160405280929190818152602001828054801561048157602002820191906000526020600020905b8160009054906101000a900473ffffffffffffffffffffffffffffffffffffffff1673ffffffffffffffffffffffffffffffffffffffff1681526020019060010190808311610437575b5050505050905090565b600160009054906101000a900473ffffffffffffffffffffffffffffffffffffffff1681565b6000600560008373ffffffffffffffffffffffffffffffffffffffff1673ffffffffffffffffffffffffffffffffffffffff16815260200190815260200160002090508060030160009054906101000a900460ff16158160030160006101000a81548160ff0219169083151502179055505050565b60005481565b60056020528060005260406000206000915090508060000160009054906101000a900473ffffffffffffffffffffffffffffffffffffffff169080600101549080600201805461057b90610f44565b80601f01602080910402602001604051908101604052809291908181526020018280546105a790610f44565b80156105f45780601f106105c9576101008083540402835291602001916105f4565b820191906000526020600020905b8154815290600101906020018083116105d757829003601f168201915b5050505050908060030160009054906101000a900460ff16905084565b6106196109d7565b6000805490506000600560003373ffffffffffffffffffffffffffffffffffffffff1673ffffffffffffffffffffffffffffffffffffffff1681526020019081526020016000209050338160000160006101000a81548173ffffffffffffffffffffffffffffffffffffffff021916908373ffffffffffffffffffffffffffffffffffffffff16021790555083838260020191826106b892919061115b565b5060008160030160006101000a81548160ff0219169083151502179055508181600101819055506002339080600181540180825580915050600190039060005260206000200160009091909190916101000a81548173ffffffffffffffffffffffffffffffffffffffff021916908373ffffffffffffffffffffffffffffffffffffffff160217905550600384849091806001815401808255809150506001900390600052602060002001600090919290919290919290919250918261077f92919061115b565b506004829080600181540180825580915050600190039060005260206000200160009091909190915055813373ffffffffffffffffffffffffffffffffffffffff167f97cb199a6fede85e8843b14a3b82273a76130b0e671f8803ce27aa90d52ee11486868560030160009054906101000a900460ff1660405161080593929190611267565b60405180910390a350505050565b6002818154811061082357600080fd5b906000526020600020016000915054906101000a900473ffffffffffffffffffffffffffffffffffffffff1681565b60606003805480602002602001604051908101604052809291908181526020016000905b8282101561092257838290600052602060002001805461089590610f44565b80601f01602080910402602001604051908101604052809291908181526020018280546108c190610f44565b801561090e5780601f106108e35761010080835404028352916020019161090e565b820191906000526020600020905b8154815290600101906020018083116108f157829003601f168201915b505050505081526020019060010190610876565b50505050905090565b6003818154811061093b57600080fd5b90600052602060002001600091509050805461095690610f44565b80601f016020809104026020016040519081016040528092919081815260200182805461098290610f44565b80156109cf5780601f106109a4576101008083540402835291602001916109cf565b820191906000526020600020905b8154815290600101906020018083116109b257829003601f168201915b505050505081565b6000808154809291906109e9906112c8565b9190505550565b600080fd5b600080fd5b600073ffffffffffffffffffffffffffffffffffffffff82169050919050565b6000610a25826109fa565b9050919050565b610a3581610a1a565b8114610a4057600080fd5b50565b600081359050610a5281610a2c565b92915050565b600060208284031215610a6e57610a6d6109f0565b5b6000610a7c84828501610a43565b91505092915050565b610a8e81610a1a565b82525050565b6000819050919050565b610aa781610a94565b82525050565b600081519050919050565b600082825260208201905092915050565b60005b83811015610ae7578082015181840152602081019050610acc565b60008484015250505050565b6000601f19601f8301169050919050565b6000610b0f82610aad565b610b198185610ab8565b9350610b29818560208601610ac9565b610b3281610af3565b840191505092915050565b60008115159050919050565b610b5281610b3d565b82525050565b6000608082019050610b6d6000830187610a85565b610b7a6020830186610a9e565b8181036040830152610b8c8185610b04565b9050610b9b6060830184610b49565b95945050505050565b610bad81610a94565b8114610bb857600080fd5b50565b600081359050610bca81610ba4565b92915050565b600060208284031215610be657610be56109f0565b5b6000610bf484828501610bbb565b91505092915050565b6000602082019050610c126000830184610a9e565b92915050565b600081519050919050565b600082825260208201905092915050565b6000819050602082019050919050565b610c4d81610a1a565b82525050565b6000610c5f8383610c44565b60208301905092915050565b6000602082019050919050565b6000610c8382610c18565b610c8d8185610c23565b9350610c9883610c34565b8060005b83811015610cc9578151610cb08882610c53565b9750610cbb83610c6b565b925050600181019050610c9c565b5085935050505092915050565b60006020820190508181036000830152610cf08184610c78565b905092915050565b6000602082019050610d0d6000830184610a85565b92915050565b600080fd5b600080fd5b600080fd5b60008083601f840112610d3857610d37610d13565b5b8235905067ffffffffffffffff811115610d5557610d54610d18565b5b602083019150836001820283011115610d7157610d70610d1d565b5b9250929050565b60008060208385031215610d8f57610d8e6109f0565b5b600083013567ffffffffffffffff811115610dad57610dac6109f5565b5b610db985828601610d22565b92509250509250929050565b600081519050919050565b600082825260208201905092915050565b6000819050602082019050919050565b600082825260208201905092915050565b6000610e0d82610aad565b610e178185610df1565b9350610e27818560208601610ac9565b610e3081610af3565b840191505092915050565b6000610e478383610e02565b905092915050565b6000602082019050919050565b6000610e6782610dc5565b610e718185610dd0565b935083602082028501610e8385610de1565b8060005b85811015610ebf5784840389528151610ea08582610e3b565b9450610eab83610e4f565b925060208a01995050600181019050610e87565b50829750879550505050505092915050565b60006020820190508181036000830152610eeb8184610e5c565b905092915050565b60006020820190508181036000830152610f0d8184610b04565b905092915050565b7f4e487b7100000000000000000000000000000000000000000000000000000000600052602260045260246000fd5b60006002820490506001821680610f5c57607f821691505b602082108103610f6f57610f6e610f15565b5b50919050565b600082905092915050565b7f4e487b7100000000000000000000000000000000000000000000000000000000600052604160045260246000fd5b60008190508160005260206000209050919050565b60006020601f8301049050919050565b600082821b905092915050565b6000600883026110117fffffffffffffffffffffffffffffffffffffffffffffffffffffffffffffffff82610fd4565b61101b8683610fd4565b95508019841693508086168417925050509392505050565b6000819050919050565b600061105861105361104e84610a94565b611033565b610a94565b9050919050565b6000819050919050565b6110728361103d565b61108661107e8261105f565b848454610fe1565b825550505050565b600090565b61109b61108e565b6110a6818484611069565b505050565b5b818110156110ca576110bf600082611093565b6001810190506110ac565b5050565b601f82111561110f576110e081610faf565b6110e984610fc4565b810160208510156110f8578190505b61110c61110485610fc4565b8301826110ab565b50505b505050565b600082821c905092915050565b600061113260001984600802611114565b1980831691505092915050565b600061114b8383611121565b9150826002028217905092915050565b6111658383610f75565b67ffffffffffffffff81111561117e5761117d610f80565b5b6111888254610f44565b6111938282856110ce565b6000601f8311600181146111c257600084156111b0578287013590505b6111ba858261113f565b865550611222565b601f1984166111d086610faf565b60005b828110156111f8578489013582556001820191506020850194506020810190506111d3565b868310156112155784890135611211601f891682611121565b8355505b6001600288020188555050505b50505050505050565b82818337600083830152505050565b60006112468385610ab8565b935061125383858461122b565b61125c83610af3565b840190509392505050565b6000604082019050818103600083015261128281858761123a565b90506112916020830184610b49565b949350505050565b7f4e487b7100000000000000000000000000000000000000000000000000000000600052601160045260246000fd5b60006112d382610a94565b91507fffffffffffffffffffffffffffffffffffffffffffffffffffffffffffffffff820361130557611304611299565b5b60018201905091905056fea2646970667358221220343dff4d166b355eb35a4af4b3a6111a590a81aee0b7eaf6c43735d5052d607264736f6c63430008110033",
  "linkReferences": {},
  "deployedLinkReferences": {}
}